{
  "contractName": "Crowdfunding",
  "abi": [
    {
      "inputs": [
        {
          "internalType": "uint256",
          "name": "",
          "type": "uint256"
        }
      ],
      "name": "campaigns",
      "outputs": [
        {
          "internalType": "uint256",
          "name": "code",
          "type": "uint256"
        },
        {
          "internalType": "address payable",
          "name": "creator",
          "type": "address"
        },
        {
          "internalType": "uint256",
          "name": "goalAmount",
          "type": "uint256"
        },
        {
          "internalType": "uint256",
          "name": "raisedAmount",
          "type": "uint256"
        },
        {
          "internalType": "uint256",
          "name": "deadline",
          "type": "uint256"
        },
        {
          "internalType": "bool",
          "name": "isOpen",
          "type": "bool"
        }
      ],
      "stateMutability": "view",
      "type": "function",
      "constant": true
    },
    {
      "inputs": [
        {
          "internalType": "uint256",
          "name": "_goalAmount",
          "type": "uint256"
        },
        {
          "internalType": "uint256",
          "name": "_deadline",
          "type": "uint256"
        },
        {
          "internalType": "uint256",
          "name": "_code",
          "type": "uint256"
        }
      ],
      "name": "startCampaign",
      "outputs": [
        {
          "internalType": "uint16",
          "name": "",
          "type": "uint16"
        }
      ],
      "stateMutability": "nonpayable",
      "type": "function"
    },
    {
      "inputs": [
        {
          "internalType": "uint256",
          "name": "_code",
          "type": "uint256"
        }
      ],
      "name": "contribute",
      "outputs": [],
      "stateMutability": "payable",
      "type": "function",
      "payable": true
    },
    {
      "inputs": [
        {
          "internalType": "uint256",
          "name": "_code",
          "type": "uint256"
        }
      ],
      "name": "getCampaign",
      "outputs": [
        {
          "components": [
            {
              "internalType": "uint256",
              "name": "code",
              "type": "uint256"
            },
            {
              "internalType": "address payable",
              "name": "creator",
              "type": "address"
            },
            {
              "internalType": "uint256",
              "name": "goalAmount",
              "type": "uint256"
            },
            {
              "internalType": "uint256",
              "name": "raisedAmount",
              "type": "uint256"
            },
            {
              "internalType": "uint256",
              "name": "deadline",
              "type": "uint256"
            },
            {
              "internalType": "bool",
              "name": "isOpen",
              "type": "bool"
            }
          ],
          "internalType": "struct Crowdfunding.Campaign",
          "name": "",
          "type": "tuple"
        }
      ],
      "stateMutability": "view",
      "type": "function",
      "constant": true
    },
    {
      "inputs": [
        {
          "internalType": "uint256",
          "name": "_code",
          "type": "uint256"
        }
      ],
      "name": "withdrawFunds",
      "outputs": [],
      "stateMutability": "nonpayable",
      "type": "function"
    },
    {
      "inputs": [
        {
          "internalType": "uint256",
          "name": "_code",
          "type": "uint256"
        }
      ],
      "name": "closeCampaign",
      "outputs": [],
      "stateMutability": "nonpayable",
      "type": "function"
    },
    {
      "inputs": [
        {
          "internalType": "address",
          "name": "_creator",
          "type": "address"
        }
      ],
      "name": "getCreatorCampaign",
      "outputs": [
        {
          "components": [
            {
              "internalType": "uint256",
              "name": "numCampaign",
              "type": "uint256"
            },
            {
              "components": [
                {
                  "internalType": "uint256",
                  "name": "code",
                  "type": "uint256"
                },
                {
                  "internalType": "address payable",
                  "name": "creator",
                  "type": "address"
                },
                {
                  "internalType": "uint256",
                  "name": "goalAmount",
                  "type": "uint256"
                },
                {
                  "internalType": "uint256",
                  "name": "raisedAmount",
                  "type": "uint256"
                },
                {
                  "internalType": "uint256",
                  "name": "deadline",
                  "type": "uint256"
                },
                {
                  "internalType": "bool",
                  "name": "isOpen",
                  "type": "bool"
                }
              ],
              "internalType": "struct Crowdfunding.Campaign[]",
              "name": "campaigns",
              "type": "tuple[]"
            }
          ],
          "internalType": "struct Crowdfunding.Creator",
          "name": "",
          "type": "tuple"
        }
      ],
      "stateMutability": "view",
      "type": "function",
      "constant": true
    },
    {
      "inputs": [],
      "name": "getCampaigns",
      "outputs": [
        {
          "components": [
            {
              "internalType": "uint256",
              "name": "code",
              "type": "uint256"
            },
            {
              "internalType": "address payable",
              "name": "creator",
              "type": "address"
            },
            {
              "internalType": "uint256",
              "name": "goalAmount",
              "type": "uint256"
            },
            {
              "internalType": "uint256",
              "name": "raisedAmount",
              "type": "uint256"
            },
            {
              "internalType": "uint256",
              "name": "deadline",
              "type": "uint256"
            },
            {
              "internalType": "bool",
              "name": "isOpen",
              "type": "bool"
            }
          ],
          "internalType": "struct Crowdfunding.Campaign[]",
          "name": "",
          "type": "tuple[]"
        }
      ],
      "stateMutability": "view",
      "type": "function",
      "constant": true
    },
    {
      "inputs": [],
      "name": "getAllCreators",
      "outputs": [
        {
          "internalType": "address[]",
          "name": "",
          "type": "address[]"
        }
      ],
      "stateMutability": "view",
      "type": "function",
      "constant": true
    }
  ],
  "bytecode": "0x608060405234801561001057600080fd5b50611879806100206000396000f3fe6080604052600436106100865760003560e01c806384e661881161005957806384e6618814610170578063a6b03633146101ad578063b0e1c1e1146101d8578063c1cbbca714610201578063f97fac4d1461021d57610086565b8063141961bc1461008b578063155dd5ee146100cd5780634f87fdb0146100f65780635598f8cc14610133575b600080fd5b34801561009757600080fd5b506100b260048036038101906100ad9190610f67565b610248565b6040516100c496959493929190610fff565b60405180910390f35b3480156100d957600080fd5b506100f460048036038101906100ef9190610f67565b6102c1565b005b34801561010257600080fd5b5061011d6004803603810190610118919061109e565b610561565b60405161012a919061125f565b60405180910390f35b34801561013f57600080fd5b5061015a60048036038101906101559190610f67565b6106c1565b60405161016791906112fc565b60405180910390f35b34801561017c57600080fd5b5061019760048036038101906101929190611317565b610787565b6040516101a49190611387565b60405180910390f35b3480156101b957600080fd5b506101c2610b13565b6040516101cf9190611411565b60405180910390f35b3480156101e457600080fd5b506101ff60048036038101906101fa9190610f67565b610c0b565b005b61021b60048036038101906102169190610f67565b610cfe565b005b34801561022957600080fd5b50610232610e36565b60405161023f91906114f1565b60405180910390f35b6004818154811061025857600080fd5b90600052602060002090600602016000915090508060000154908060010160009054906101000a900473ffffffffffffffffffffffffffffffffffffffff16908060020154908060030154908060040154908060050160009054906101000a900460ff16905086565b60005b60048054905081101561055d5781600482815481106102e6576102e5611513565b5b906000526020600020906006020160000154141561054a57600015156002600084815260200190815260200160002060050160009054906101000a900460ff16151514610368576040517f08c379a000000000000000000000000000000000000000000000000000000000815260040161035f9061159f565b60405180910390fd5b3373ffffffffffffffffffffffffffffffffffffffff166002600084815260200190815260200160002060010160009054906101000a900473ffffffffffffffffffffffffffffffffffffffff1673ffffffffffffffffffffffffffffffffffffffff161461040c576040517f08c379a000000000000000000000000000000000000000000000000000000000815260040161040390611631565b60405180910390fd5b60026000838152602001908152602001600020600201546002600084815260200190815260200160002060030154101561047b576040517f08c379a0000000000000000000000000000000000000000000000000000000008152600401610472906116c3565b60405180910390fd5b6000600260008481526020019081526020016000206003015490506000600483815481106104ac576104ab611513565b5b906000526020600020906006020160030181905550600482815481106104d5576104d4611513565b5b90600052602060002090600602016003015460026000858152602001908152602001600020600301819055503373ffffffffffffffffffffffffffffffffffffffff166108fc829081150290604051600060405180830381858888f19350505050158015610547573d6000803e3d6000fd5b50505b808061055590611712565b9150506102c4565b5050565b610569610ec4565b60008060008473ffffffffffffffffffffffffffffffffffffffff1673ffffffffffffffffffffffffffffffffffffffff1681526020019081526020016000206040518060400160405290816000820154815260200160018201805480602002602001604051908101604052809291908181526020016000905b828210156106ae57838290600052602060002090600602016040518060c0016040529081600082015481526020016001820160009054906101000a900473ffffffffffffffffffffffffffffffffffffffff1673ffffffffffffffffffffffffffffffffffffffff1673ffffffffffffffffffffffffffffffffffffffff1681526020016002820154815260200160038201548152602001600482015481526020016005820160009054906101000a900460ff161515151581525050815260200190600101906105e3565b5050505081525050905080915050919050565b6106c9610ede565b600260008381526020019081526020016000206040518060c0016040529081600082015481526020016001820160009054906101000a900473ffffffffffffffffffffffffffffffffffffffff1673ffffffffffffffffffffffffffffffffffffffff1673ffffffffffffffffffffffffffffffffffffffff1681526020016002820154815260200160038201548152602001600482015481526020016005820160009054906101000a900460ff1615151515815250509050919050565b60008084116107cb576040517f08c379a00000000000000000000000000000000000000000000000000000000081526004016107c2906117cd565b60405180910390fd5b60006040518060c001604052808481526020013373ffffffffffffffffffffffffffffffffffffffff16815260200186815260200160008152602001854261081391906117ed565b815260200160011515815250905060008060003373ffffffffffffffffffffffffffffffffffffffff1673ffffffffffffffffffffffffffffffffffffffff16815260200190815260200160002090506000816000015414156108d4576003339080600181540180825580915050600190039060005260206000200160009091909190916101000a81548173ffffffffffffffffffffffffffffffffffffffff021916908373ffffffffffffffffffffffffffffffffffffffff1602179055505b806001018290806001815401808255809150506001900390600052602060002090600602016000909190919091506000820151816000015560208201518160010160006101000a81548173ffffffffffffffffffffffffffffffffffffffff021916908373ffffffffffffffffffffffffffffffffffffffff16021790555060408201518160020155606082015181600301556080820151816004015560a08201518160050160006101000a81548160ff02191690831515021790555050508060010180549050816000018190555060048290806001815401808255809150506001900390600052602060002090600602016000909190919091506000820151816000015560208201518160010160006101000a81548173ffffffffffffffffffffffffffffffffffffffff021916908373ffffffffffffffffffffffffffffffffffffffff16021790555060408201518160020155606082015181600301556080820151816004015560a08201518160050160006101000a81548160ff021916908315150217905550505081600260008681526020019081526020016000206000820151816000015560208201518160010160006101000a81548173ffffffffffffffffffffffffffffffffffffffff021916908373ffffffffffffffffffffffffffffffffffffffff16021790555060408201518160020155606082015181600301556080820151816004015560a08201518160050160006101000a81548160ff02191690831515021790555090505060c8925050509392505050565b60606004805480602002602001604051908101604052809291908181526020016000905b82821015610c0257838290600052602060002090600602016040518060c0016040529081600082015481526020016001820160009054906101000a900473ffffffffffffffffffffffffffffffffffffffff1673ffffffffffffffffffffffffffffffffffffffff1673ffffffffffffffffffffffffffffffffffffffff1681526020016002820154815260200160038201548152602001600482015481526020016005820160009054906101000a900460ff16151515158152505081526020019060010190610b37565b50505050905090565b60005b600480549050811015610cfa578160048281548110610c3057610c2f611513565b5b9060005260206000209060060201600001541415610ce757600060048281548110610c5e57610c5d611513565b5b906000526020600020906006020160050160006101000a81548160ff02191690831515021790555060048181548110610c9a57610c99611513565b5b906000526020600020906006020160050160009054906101000a900460ff166002600084815260200190815260200160002060050160006101000a81548160ff0219169083151502179055505b8080610cf290611712565b915050610c0e565b5050565b346001600083815260200190815260200160002060003373ffffffffffffffffffffffffffffffffffffffff1673ffffffffffffffffffffffffffffffffffffffff1681526020019081526020016000206000828254610d5e91906117ed565b9250508190555060005b600480549050811015610e32578160048281548110610d8a57610d89611513565b5b9060005260206000209060060201600001541415610e1f573460048281548110610db757610db6611513565b5b90600052602060002090600602016003016000828254610dd791906117ed565b9250508190555060048181548110610df257610df1611513565b5b90600052602060002090600602016003015460026000848152602001908152602001600020600301819055505b8080610e2a90611712565b915050610d68565b5050565b60606003805480602002602001604051908101604052809291908181526020018280548015610eba57602002820191906000526020600020905b8160009054906101000a900473ffffffffffffffffffffffffffffffffffffffff1673ffffffffffffffffffffffffffffffffffffffff1681526020019060010190808311610e70575b5050505050905090565b604051806040016040528060008152602001606081525090565b6040518060c0016040528060008152602001600073ffffffffffffffffffffffffffffffffffffffff1681526020016000815260200160008152602001600081526020016000151581525090565b600080fd5b6000819050919050565b610f4481610f31565b8114610f4f57600080fd5b50565b600081359050610f6181610f3b565b92915050565b600060208284031215610f7d57610f7c610f2c565b5b6000610f8b84828501610f52565b91505092915050565b610f9d81610f31565b82525050565b600073ffffffffffffffffffffffffffffffffffffffff82169050919050565b6000610fce82610fa3565b9050919050565b610fde81610fc3565b82525050565b60008115159050919050565b610ff981610fe4565b82525050565b600060c0820190506110146000830189610f94565b6110216020830188610fd5565b61102e6040830187610f94565b61103b6060830186610f94565b6110486080830185610f94565b61105560a0830184610ff0565b979650505050505050565b600061106b82610fa3565b9050919050565b61107b81611060565b811461108657600080fd5b50565b60008135905061109881611072565b92915050565b6000602082840312156110b4576110b3610f2c565b5b60006110c284828501611089565b91505092915050565b6110d481610f31565b82525050565b600081519050919050565b600082825260208201905092915050565b6000819050602082019050919050565b61110f81610fc3565b82525050565b61111e81610fe4565b82525050565b60c08201600082015161113a60008501826110cb565b50602082015161114d6020850182611106565b50604082015161116060408501826110cb565b50606082015161117360608501826110cb565b50608082015161118660808501826110cb565b5060a082015161119960a0850182611115565b50505050565b60006111ab8383611124565b60c08301905092915050565b6000602082019050919050565b60006111cf826110da565b6111d981856110e5565b93506111e4836110f6565b8060005b838110156112155781516111fc888261119f565b9750611207836111b7565b9250506001810190506111e8565b5085935050505092915050565b600060408301600083015161123a60008601826110cb565b506020830151848203602086015261125282826111c4565b9150508091505092915050565b600060208201905081810360008301526112798184611222565b905092915050565b60c08201600082015161129760008501826110cb565b5060208201516112aa6020850182611106565b5060408201516112bd60408501826110cb565b5060608201516112d060608501826110cb565b5060808201516112e360808501826110cb565b5060a08201516112f660a0850182611115565b50505050565b600060c0820190506113116000830184611281565b92915050565b6000806000606084860312156113305761132f610f2c565b5b600061133e86828701610f52565b935050602061134f86828701610f52565b925050604061136086828701610f52565b9150509250925092565b600061ffff82169050919050565b6113818161136a565b82525050565b600060208201905061139c6000830184611378565b92915050565b600082825260208201905092915050565b60006113be826110da565b6113c881856113a2565b93506113d3836110f6565b8060005b838110156114045781516113eb888261119f565b97506113f6836111b7565b9250506001810190506113d7565b5085935050505092915050565b6000602082019050818103600083015261142b81846113b3565b905092915050565b600081519050919050565b600082825260208201905092915050565b6000819050602082019050919050565b61146881611060565b82525050565b600061147a838361145f565b60208301905092915050565b6000602082019050919050565b600061149e82611433565b6114a8818561143e565b93506114b38361144f565b8060005b838110156114e45781516114cb888261146e565b97506114d683611486565b9250506001810190506114b7565b5085935050505092915050565b6000602082019050818103600083015261150b8184611493565b905092915050565b7f4e487b7100000000000000000000000000000000000000000000000000000000600052603260045260246000fd5b600082825260208201905092915050565b7f4c612063616d7061676e652065737420746f756a6f757273206f757665727465600082015250565b6000611589602083611542565b915061159482611553565b602082019050919050565b600060208201905081810360008301526115b88161157c565b9050919050565b7f5365756c206c6520637265617465757220706575742072657469726572206c6560008201527f7320666f6e647300000000000000000000000000000000000000000000000000602082015250565b600061161b602783611542565b9150611626826115bf565b604082019050919050565b6000602082019050818103600083015261164a8161160e565b9050919050565b7f4c612063616d7061676e65206e2761207061732061747465696e7420736f6e2060008201527f6f626a6563746966000000000000000000000000000000000000000000000000602082015250565b60006116ad602883611542565b91506116b882611651565b604082019050919050565b600060208201905081810360008301526116dc816116a0565b9050919050565b7f4e487b7100000000000000000000000000000000000000000000000000000000600052601160045260246000fd5b600061171d82610f31565b91507fffffffffffffffffffffffffffffffffffffffffffffffffffffffffffffffff8214156117505761174f6116e3565b5b600182019050919050565b7f4c65206d6f6e74616e74206369626c6520646f6974206574726520737570657260008201527f696575722061207a65726f000000000000000000000000000000000000000000602082015250565b60006117b7602b83611542565b91506117c28261175b565b604082019050919050565b600060208201905081810360008301526117e6816117aa565b9050919050565b60006117f882610f31565b915061180383610f31565b9250827fffffffffffffffffffffffffffffffffffffffffffffffffffffffffffffffff03821115611838576118376116e3565b5b82820190509291505056fea2646970667358221220f856ed094e74e04a41dfbaf32cd61a5d0fa7e62841427abb8033edf2b1a9a8fd64736f6c63430008090033",
  "immutableReferences": {},
  "source": "// SPDX-License-Identifier: MIT\r\n\r\npragma solidity >=0.8.0 <0.9.0;\r\n//pragma experimental ABIEncoderV2;\r\n\r\ncontract Crowdfunding {\r\n    struct Campaign {\r\n        uint256 code;\r\n        address payable creator;\r\n        uint256 goalAmount;\r\n        uint256 raisedAmount;\r\n        uint256 deadline;\r\n        bool isOpen;\r\n    }\r\n\r\n    struct Creator {\r\n        uint numCampaign;\r\n        Campaign[] campaigns;\r\n    }\r\n\r\n    mapping(address => Creator) private creactorCampaigns;\r\n    mapping(uint256 => mapping(address => uint256)) private campaignContributions;\r\n    mapping(uint256 => Campaign) private codeCampaign;\r\n    address[] private creators;\r\n\r\n    Campaign[] public campaigns; // Tableau de toutes les campagnes cres\r\n\r\n    // Fonction pour dmarrer une nouvelle campagne\r\n    function startCampaign(uint256 _goalAmount, uint256 _deadline, uint256 _code) external returns (uint16){\r\n        require(_goalAmount > 0, \"Le montant cible doit etre superieur a zero\");\r\n\r\n        Campaign memory newCampaign = Campaign({\r\n            code: _code,\r\n            creator: payable(msg.sender),\r\n            goalAmount: _goalAmount,\r\n            raisedAmount: 0,\r\n            deadline: block.timestamp + _deadline,\r\n            isOpen: true\r\n        });\r\n\r\n        Creator storage creator = creactorCampaigns[msg.sender];\r\n\r\n        if (creator.numCampaign == 0) {\r\n            creators.push(msg.sender);\r\n        }\r\n\r\n        creator.campaigns.push(newCampaign);\r\n        creator.numCampaign = creator.campaigns.length;\r\n\r\n        campaigns.push(newCampaign);\r\n        codeCampaign[_code] = newCampaign;\r\n        return 200;\r\n    }\r\n\r\n    // Fonction pour contribuer  une campagne\r\n    function contribute(uint256 _code) external payable {\r\n        campaignContributions[_code][msg.sender] += msg.value;\r\n        for(uint i = 0; i<campaigns.length; i++) {\r\n            if (campaigns[i].code == _code) {\r\n                campaigns[i].raisedAmount += msg.value;\r\n                codeCampaign[_code].raisedAmount = campaigns[i].raisedAmount;\r\n            }\r\n        }\r\n    }\r\n\r\n    // Fonction pour vrifier l'tat de financement d'une campagne\r\n    function getCampaign(uint256 _code) public view returns (Campaign memory) {\r\n        return codeCampaign[_code];\r\n    }\r\n\r\n    // Fonction pour retirer les fonds rcolts si la campagne a atteint son objectif\r\n    function withdrawFunds(uint256 _code) external {\r\n        for(uint i = 0; i<campaigns.length; i++) {\r\n            if (campaigns[i].code == _code) {\r\n                require(codeCampaign[_code].isOpen == false, \"La campagne est toujours ouverte\");\r\n                require(codeCampaign[_code].creator == msg.sender, \"Seul le createur peut retirer les fonds\");\r\n\r\n                require(codeCampaign[_code].raisedAmount >= codeCampaign[_code].goalAmount, \"La campagne n'a pas atteint son objectif\");\r\n\r\n                uint256 amountToTransfer = codeCampaign[_code].raisedAmount;\r\n                campaigns[i].raisedAmount = 0;\r\n                codeCampaign[_code].raisedAmount = campaigns[i].raisedAmount;\r\n\r\n                payable(msg.sender).transfer(amountToTransfer);\r\n            }\r\n        }\r\n    }\r\n\r\n    // Fonction pour fermer une campagne si la date limite est dpasse sans atteindre l'objectif\r\n    function closeCampaign(uint256 _code) external {\r\n        for(uint i = 0; i<campaigns.length; i++) {\r\n            if (campaigns[i].code == _code) {\r\n                campaigns[i].isOpen = false;\r\n                codeCampaign[_code].isOpen = campaigns[i].isOpen;\r\n            }\r\n        }\r\n    }\r\n\r\n    function getCreatorCampaign(address _creator) public view returns (Creator memory) {\r\n        Creator memory creat = creactorCampaigns[_creator];\r\n        return creat;\r\n    }\r\n\r\n    function getCampaigns() public view returns (Campaign[] memory) {\r\n        return campaigns;\r\n    }\r\n\r\n    function getAllCreators() public view returns (address[] memory) {\r\n        return creators;\r\n    }\r\n\r\n}",
  "sourcePath": "C:\\Users\\Admin\\Documents\\Ecole\\Alternance\\Anne 3\\DA51\\TP\\TP08\\crowdfunding\\contracts\\Crowdfunding.sol",
  "compiler": {
    "name": "solc",
    "version": "0.8.9+commit.e5eed63a.Emscripten.clang"
  },
  "schemaVersion": "3.4.16",
  "updatedAt": "2023-12-05T14:40:59.297Z",
  "networkType": "ethereum",
  "devdoc": {
    "kind": "dev",
    "methods": {},
    "version": 1
  },
  "userdoc": {
    "kind": "user",
    "methods": {},
    "version": 1
  }
}